{
  "contractName": "MyEtherClub",
  "abi": [
    {
      "inputs": [],
      "payable": false,
      "stateMutability": "nonpayable",
      "type": "constructor"
    },
    {
      "anonymous": false,
      "inputs": [
        {
          "indexed": true,
          "internalType": "address",
          "name": "_user",
          "type": "address"
        },
        {
          "indexed": false,
          "internalType": "uint256",
          "name": "_level",
          "type": "uint256"
        },
        {
          "indexed": false,
          "internalType": "uint256",
          "name": "_time",
          "type": "uint256"
        }
      ],
      "name": "buyLevelEvent",
      "type": "event"
    },
    {
      "anonymous": false,
      "inputs": [
        {
          "indexed": true,
          "internalType": "address",
          "name": "_user",
          "type": "address"
        },
        {
          "indexed": true,
          "internalType": "address",
          "name": "_referral",
          "type": "address"
        },
        {
          "indexed": false,
          "internalType": "uint256",
          "name": "_level",
          "type": "uint256"
        },
        {
          "indexed": false,
          "internalType": "uint256",
          "name": "_time",
          "type": "uint256"
        }
      ],
      "name": "getMoneyForLevelEvent",
      "type": "event"
    },
    {
      "anonymous": false,
      "inputs": [
        {
          "indexed": true,
          "internalType": "address",
          "name": "_user",
          "type": "address"
        },
        {
          "indexed": true,
          "internalType": "address",
          "name": "_referral",
          "type": "address"
        },
        {
          "indexed": false,
          "internalType": "uint256",
          "name": "_level",
          "type": "uint256"
        },
        {
          "indexed": false,
          "internalType": "uint256",
          "name": "_time",
          "type": "uint256"
        }
      ],
      "name": "lostMoneyForLevelEvent",
      "type": "event"
    },
    {
      "anonymous": false,
      "inputs": [
        {
          "indexed": true,
          "internalType": "address",
          "name": "_user",
          "type": "address"
        },
        {
          "indexed": false,
          "internalType": "uint256",
          "name": "_level",
          "type": "uint256"
        },
        {
          "indexed": false,
          "internalType": "uint256",
          "name": "_time",
          "type": "uint256"
        }
      ],
      "name": "prolongateLevelEvent",
      "type": "event"
    },
    {
      "anonymous": false,
      "inputs": [
        {
          "indexed": true,
          "internalType": "address",
          "name": "_user",
          "type": "address"
        },
        {
          "indexed": true,
          "internalType": "address",
          "name": "_referrer",
          "type": "address"
        },
        {
          "indexed": false,
          "internalType": "uint256",
          "name": "_time",
          "type": "uint256"
        }
      ],
      "name": "regLevelEvent",
      "type": "event"
    },
    {
      "payable": true,
      "stateMutability": "payable",
      "type": "fallback"
    },
    {
      "constant": true,
      "inputs": [
        {
          "internalType": "uint256",
          "name": "",
          "type": "uint256"
        }
      ],
      "name": "LEVEL_PRICE",
      "outputs": [
        {
          "internalType": "uint256",
          "name": "",
          "type": "uint256"
        }
      ],
      "payable": false,
      "stateMutability": "view",
      "type": "function"
    },
    {
      "constant": true,
      "inputs": [],
      "name": "currUserID",
      "outputs": [
        {
          "internalType": "uint256",
          "name": "",
          "type": "uint256"
        }
      ],
      "payable": false,
      "stateMutability": "view",
      "type": "function"
    },
    {
      "constant": true,
      "inputs": [],
      "name": "manager",
      "outputs": [
        {
          "internalType": "address",
          "name": "",
          "type": "address"
        }
      ],
      "payable": false,
      "stateMutability": "view",
      "type": "function"
    },
    {
      "constant": true,
      "inputs": [],
      "name": "owner",
      "outputs": [
        {
          "internalType": "address",
          "name": "",
          "type": "address"
        }
      ],
      "payable": false,
      "stateMutability": "view",
      "type": "function"
    },
    {
      "constant": true,
      "inputs": [],
      "name": "ownerWallet",
      "outputs": [
        {
          "internalType": "address",
          "name": "",
          "type": "address"
        }
      ],
      "payable": false,
      "stateMutability": "view",
      "type": "function"
    },
    {
      "constant": false,
      "inputs": [
        {
          "internalType": "address",
          "name": "_manager",
          "type": "address"
        }
      ],
      "name": "setManager",
      "outputs": [],
      "payable": false,
      "stateMutability": "nonpayable",
      "type": "function"
    },
    {
      "constant": false,
      "inputs": [
        {
          "internalType": "address",
          "name": "newOwner",
          "type": "address"
        }
      ],
      "name": "transferOwnership",
      "outputs": [],
      "payable": false,
      "stateMutability": "nonpayable",
      "type": "function"
    },
    {
      "constant": true,
      "inputs": [
        {
          "internalType": "uint256",
          "name": "",
          "type": "uint256"
        }
      ],
      "name": "userList",
      "outputs": [
        {
          "internalType": "address",
          "name": "",
          "type": "address"
        }
      ],
      "payable": false,
      "stateMutability": "view",
      "type": "function"
    },
    {
      "constant": true,
      "inputs": [
        {
          "internalType": "address",
          "name": "",
          "type": "address"
        }
      ],
      "name": "users",
      "outputs": [
        {
          "internalType": "bool",
          "name": "isExist",
          "type": "bool"
        },
        {
          "internalType": "uint256",
          "name": "id",
          "type": "uint256"
        },
        {
          "internalType": "uint256",
          "name": "referrerID",
          "type": "uint256"
        }
      ],
      "payable": false,
      "stateMutability": "view",
      "type": "function"
    },
    {
      "constant": true,
      "inputs": [
        {
          "internalType": "uint256",
          "name": "_i",
          "type": "uint256"
        }
      ],
      "name": "getMap",
      "outputs": [
        {
          "internalType": "uint256",
          "name": "",
          "type": "uint256"
        }
      ],
      "payable": false,
      "stateMutability": "view",
      "type": "function"
    },
    {
      "constant": false,
      "inputs": [
        {
          "internalType": "uint256",
          "name": "_referrerID",
          "type": "uint256"
        }
      ],
      "name": "regUser",
      "outputs": [],
      "payable": true,
      "stateMutability": "payable",
      "type": "function"
    },
    {
      "constant": false,
      "inputs": [
        {
          "internalType": "uint256",
          "name": "_level",
          "type": "uint256"
        }
      ],
      "name": "buyLevel",
      "outputs": [],
      "payable": true,
      "stateMutability": "payable",
      "type": "function"
    },
    {
      "constant": true,
      "inputs": [
        {
          "internalType": "address",
          "name": "_user",
          "type": "address"
        }
      ],
      "name": "findFreeReferrer",
      "outputs": [
        {
          "internalType": "address",
          "name": "",
          "type": "address"
        }
      ],
      "payable": false,
      "stateMutability": "view",
      "type": "function"
    },
    {
      "constant": true,
      "inputs": [
        {
          "internalType": "address",
          "name": "_user",
          "type": "address"
        }
      ],
      "name": "viewUserReferral",
      "outputs": [
        {
          "internalType": "address[]",
          "name": "",
          "type": "address[]"
        }
      ],
      "payable": false,
      "stateMutability": "view",
      "type": "function"
    },
    {
      "constant": true,
      "inputs": [
        {
          "internalType": "address",
          "name": "_user",
          "type": "address"
        },
        {
          "internalType": "uint256",
          "name": "_level",
          "type": "uint256"
        }
      ],
      "name": "viewUserLevelExpired",
      "outputs": [
        {
          "internalType": "uint256",
          "name": "",
          "type": "uint256"
        }
      ],
      "payable": false,
      "stateMutability": "view",
      "type": "function"
    }
  ],
  "bytecode": "0x608060405260036004556301e1338060055560006008553480156200002357600080fd5b50336000806101000a81548173ffffffffffffffffffffffffffffffffffffffff021916908373ffffffffffffffffffffffffffffffffffffffff16021790555033600160006101000a81548173ffffffffffffffffffffffffffffffffffffffff021916908373ffffffffffffffffffffffffffffffffffffffff16021790555073c40cf8ffff09cf72753d9e56bbd60342888a2f46600260006101000a81548173ffffffffffffffffffffffffffffffffffffffff021916908373ffffffffffffffffffffffffffffffffffffffff16021790555066b1a2bc2ec50000600360006001815260200190815260200160002081905550670214e8348c4f000060036000600281526020019081526020016000208190555067063eb89da4ed00006003600060038152602001908152602001600020819055506712bc29d8eec700006003600060048152602001908152602001600020819055506738347d8acc55000060036000600581526020019081526020016000208190555067a89d78a064ff00006003600060068152602001908152602001600020819055506801f9d869e12efd00006003600060078152602001908152602001600020819055506805ed893da38cf700006003600060088152602001908152602001600020819055506200020d620007ae565b60086000815480929190600101919050555060405180608001604052806001151581526020016008548152602001600081526020016000604051908082528060200260200182016040528015620002735781602001602082028038833980820191505090505b5081525090508060066000600260009054906101000a900473ffffffffffffffffffffffffffffffffffffffff1673ffffffffffffffffffffffffffffffffffffffff1673ffffffffffffffffffffffffffffffffffffffff16815260200190815260200160002060008201518160000160006101000a81548160ff021916908315150217905550602082015181600101556040820151816002015560608201518160030190805190602001906200032d929190620007d8565b50905050600260009054906101000a900473ffffffffffffffffffffffffffffffffffffffff1660076000600854815260200190815260200160002060006101000a81548173ffffffffffffffffffffffffffffffffffffffff021916908373ffffffffffffffffffffffffffffffffffffffff16021790555064121beab47160066000600260009054906101000a900473ffffffffffffffffffffffffffffffffffffffff1673ffffffffffffffffffffffffffffffffffffffff1673ffffffffffffffffffffffffffffffffffffffff1681526020019081526020016000206004016000600181526020019081526020016000208190555064121beab47160066000600260009054906101000a900473ffffffffffffffffffffffffffffffffffffffff1673ffffffffffffffffffffffffffffffffffffffff1673ffffffffffffffffffffffffffffffffffffffff1681526020019081526020016000206004016000600281526020019081526020016000208190555064121beab47160066000600260009054906101000a900473ffffffffffffffffffffffffffffffffffffffff1673ffffffffffffffffffffffffffffffffffffffff1673ffffffffffffffffffffffffffffffffffffffff1681526020019081526020016000206004016000600381526020019081526020016000208190555064121beab47160066000600260009054906101000a900473ffffffffffffffffffffffffffffffffffffffff1673ffffffffffffffffffffffffffffffffffffffff1673ffffffffffffffffffffffffffffffffffffffff1681526020019081526020016000206004016000600481526020019081526020016000208190555064121beab47160066000600260009054906101000a900473ffffffffffffffffffffffffffffffffffffffff1673ffffffffffffffffffffffffffffffffffffffff1673ffffffffffffffffffffffffffffffffffffffff1681526020019081526020016000206004016000600581526020019081526020016000208190555064121beab47160066000600260009054906101000a900473ffffffffffffffffffffffffffffffffffffffff1673ffffffffffffffffffffffffffffffffffffffff1673ffffffffffffffffffffffffffffffffffffffff1681526020019081526020016000206004016000600681526020019081526020016000208190555064121beab47160066000600260009054906101000a900473ffffffffffffffffffffffffffffffffffffffff1673ffffffffffffffffffffffffffffffffffffffff1673ffffffffffffffffffffffffffffffffffffffff1681526020019081526020016000206004016000600781526020019081526020016000208190555064121beab47160066000600260009054906101000a900473ffffffffffffffffffffffffffffffffffffffff1673ffffffffffffffffffffffffffffffffffffffff1673ffffffffffffffffffffffffffffffffffffffff1681526020019081526020016000206004016000600881526020019081526020016000208190555050620008ad565b60405180608001604052806000151581526020016000815260200160008152602001606081525090565b82805482825590600052602060002090810192821562000854579160200282015b82811115620008535782518260006101000a81548173ffffffffffffffffffffffffffffffffffffffff021916908373ffffffffffffffffffffffffffffffffffffffff16021790555091602001919060010190620007f9565b5b50905062000863919062000867565b5090565b620008aa91905b80821115620008a657600081816101000a81549073ffffffffffffffffffffffffffffffffffffffff0219169055506001016200086e565b5090565b90565b612baa80620008bd6000396000f3fe6080604052600436106100e85760003560e01c80639335dcb71161008a578063d0ebdbe711610059578063d0ebdbe7146108e1578063d284007314610932578063f2fde38b146109a1578063f6838a72146109f2576100e8565b80639335dcb71461076d5780639f4216e8146107c4578063a4bb170d1461083f578063a87430ba1461086a576100e8565b80634a4baa8f116100c65780634a4baa8f146105f357806379378e30146106995780638853b53e146106e85780638da5cb5b14610716576100e8565b8063025799f0146104bc578063132c8c9b1461050b578063481c6a751461059c575b600060036000600181526020019081526020016000205434141561010f5760019050610287565b6003600060028152602001908152602001600020543414156101345760029050610286565b6003600060038152602001908152602001600020543414156101595760039050610285565b60036000600481526020019081526020016000205434141561017e5760049050610284565b6003600060058152602001908152602001600020543414156101a35760059050610283565b6003600060068152602001908152602001600020543414156101c85760069050610282565b6003600060078152602001908152602001600020543414156101ed5760079050610281565b6003600060088152602001908152602001600020543414156102125760089050610280565b6040517f08c379a00000000000000000000000000000000000000000000000000000000081526004018080602001828103825260148152602001807f496e636f72726563742056616c75652073656e6400000000000000000000000081525060200191505060405180910390fd5b5b5b5b5b5b5b5b600660003373ffffffffffffffffffffffffffffffffffffffff1673ffffffffffffffffffffffffffffffffffffffff16815260200190815260200160002060000160009054906101000a900460ff16156102ea576102e581610a20565b6104b9565b600181141561046757600080905060006103486000368080601f016020809104026020016040519081016040528093929190818152602001838380828437600081840152601f19601f82011690508083019250505050505050610f57565b9050600660008273ffffffffffffffffffffffffffffffffffffffff1673ffffffffffffffffffffffffffffffffffffffff16815260200190815260200160002060000160009054906101000a900460ff16156103e957600660008273ffffffffffffffffffffffffffffffffffffffff1673ffffffffffffffffffffffffffffffffffffffff168152602001908152602001600020600101549150610457565b6040517f08c379a00000000000000000000000000000000000000000000000000000000081526004018080602001828103825260128152602001807f496e636f7272656374207265666572726572000000000000000000000000000081525060200191505060405180910390fd5b61046082610f65565b50506104b8565b6040517f08c379a0000000000000000000000000000000000000000000000000000000008152600401808060200182810382526023815260200180612b536023913960400191505060405180910390fd5b5b50005b3480156104c857600080fd5b506104f5600480360360208110156104df57600080fd5b81019080803590602001909291905050506117e4565b6040518082815260200191505060405180910390f35b34801561051757600080fd5b5061055a6004803603602081101561052e57600080fd5b81019080803573ffffffffffffffffffffffffffffffffffffffff169060200190929190505050611801565b604051808273ffffffffffffffffffffffffffffffffffffffff1673ffffffffffffffffffffffffffffffffffffffff16815260200191505060405180910390f35b3480156105a857600080fd5b506105b1611e93565b604051808273ffffffffffffffffffffffffffffffffffffffff1673ffffffffffffffffffffffffffffffffffffffff16815260200191505060405180910390f35b3480156105ff57600080fd5b506106426004803603602081101561061657600080fd5b81019080803573ffffffffffffffffffffffffffffffffffffffff169060200190929190505050611eb9565b6040518080602001828103825283818151815260200191508051906020019060200280838360005b8381101561068557808201518184015260208101905061066a565b505050509050019250505060405180910390f35b3480156106a557600080fd5b506106d2600480360360208110156106bc57600080fd5b8101908080359060200190929190505050611f89565b6040518082815260200191505060405180910390f35b610714600480360360208110156106fe57600080fd5b8101908080359060200190929190505050610f65565b005b34801561072257600080fd5b5061072b611fa1565b604051808273ffffffffffffffffffffffffffffffffffffffff1673ffffffffffffffffffffffffffffffffffffffff16815260200191505060405180910390f35b34801561077957600080fd5b50610782611fc6565b604051808273ffffffffffffffffffffffffffffffffffffffff1673ffffffffffffffffffffffffffffffffffffffff16815260200191505060405180910390f35b3480156107d057600080fd5b506107fd600480360360208110156107e757600080fd5b8101908080359060200190929190505050611fec565b604051808273ffffffffffffffffffffffffffffffffffffffff1673ffffffffffffffffffffffffffffffffffffffff16815260200191505060405180910390f35b34801561084b57600080fd5b5061085461201f565b6040518082815260200191505060405180910390f35b34801561087657600080fd5b506108b96004803603602081101561088d57600080fd5b81019080803573ffffffffffffffffffffffffffffffffffffffff169060200190929190505050612025565b6040518084151515158152602001838152602001828152602001935050505060405180910390f35b3480156108ed57600080fd5b506109306004803603602081101561090457600080fd5b81019080803573ffffffffffffffffffffffffffffffffffffffff16906020019092919050505061205c565b005b34801561093e57600080fd5b5061098b6004803603604081101561095557600080fd5b81019080803573ffffffffffffffffffffffffffffffffffffffff169060200190929190803590602001909291905050506121ba565b6040518082815260200191505060405180910390f35b3480156109ad57600080fd5b506109f0600480360360208110156109c457600080fd5b81019080803573ffffffffffffffffffffffffffffffffffffffff169060200190929190505050612218565b005b610a1e60048036036020811015610a0857600080fd5b8101908080359060200190929190505050610a20565b005b600660003373ffffffffffffffffffffffffffffffffffffffff1673ffffffffffffffffffffffffffffffffffffffff16815260200190815260200160002060000160009054906101000a900460ff16610ae2576040517f08c379a000000000000000000000000000000000000000000000000000000000815260040180806020018281038252600e8152602001807f55736572206e6f7420657869737400000000000000000000000000000000000081525060200191505060405180910390fd5b600081118015610af3575060088111155b610b65576040517f08c379a000000000000000000000000000000000000000000000000000000000815260040180806020018281038252600f8152602001807f496e636f7272656374206c6576656c000000000000000000000000000000000081525060200191505060405180910390fd5b6001811415610c60576003600060018152602001908152602001600020543414610bf7576040517f08c379a000000000000000000000000000000000000000000000000000000000815260040180806020018281038252600f8152602001807f496e636f72726563742056616c7565000000000000000000000000000000000081525060200191505060405180910390fd5b600554600660003373ffffffffffffffffffffffffffffffffffffffff1673ffffffffffffffffffffffffffffffffffffffff16815260200190815260200160002060040160006001815260200190815260200160002060008282540192505081905550610ef4565b60036000828152602001908152602001600020543414610ce8576040517f08c379a000000000000000000000000000000000000000000000000000000000815260040180806020018281038252600f8152602001807f496e636f72726563742056616c7565000000000000000000000000000000000081525060200191505060405180910390fd5b60006001820390505b6000811115610dd15742600660003373ffffffffffffffffffffffffffffffffffffffff1673ffffffffffffffffffffffffffffffffffffffff1681526020019081526020016000206004016000838152602001908152602001600020541015610dc3576040517f08c379a00000000000000000000000000000000000000000000000000000000081526004018080602001828103825260168152602001807f427579207468652070726576696f7573206c6576656c0000000000000000000081525060200191505060405180910390fd5b808060019003915050610cf1565b506000600660003373ffffffffffffffffffffffffffffffffffffffff1673ffffffffffffffffffffffffffffffffffffffff1681526020019081526020016000206004016000838152602001908152602001600020541415610e8f576005544201600660003373ffffffffffffffffffffffffffffffffffffffff1673ffffffffffffffffffffffffffffffffffffffff168152602001908152602001600020600401600083815260200190815260200160002081905550610ef3565b600554600660003373ffffffffffffffffffffffffffffffffffffffff1673ffffffffffffffffffffffffffffffffffffffff1681526020019081526020016000206004016000838152602001908152602001600020600082825401925050819055505b5b610efe813361231d565b3373ffffffffffffffffffffffffffffffffffffffff167f9ea70f0eb33d898c3336ecf2c0e3cf1c0195c13ad3fbcb34447777dbfd5ff2d08242604051808381526020018281526020019250505060405180910390a250565b600060148201519050919050565b600660003373ffffffffffffffffffffffffffffffffffffffff1673ffffffffffffffffffffffffffffffffffffffff16815260200190815260200160002060000160009054906101000a900460ff1615611028576040517f08c379a000000000000000000000000000000000000000000000000000000000815260040180806020018281038252600a8152602001807f557365722065786973740000000000000000000000000000000000000000000081525060200191505060405180910390fd5b60008111801561103a57506008548111155b6110ac576040517f08c379a00000000000000000000000000000000000000000000000000000000081526004018080602001828103825260158152602001807f496e636f7272656374207265666572726572204964000000000000000000000081525060200191505060405180910390fd5b6003600060018152602001908152602001600020543414611135576040517f08c379a000000000000000000000000000000000000000000000000000000000815260040180806020018281038252600f8152602001807f496e636f72726563742056616c7565000000000000000000000000000000000081525060200191505060405180910390fd5b600454600660006007600085815260200190815260200160002060009054906101000a900473ffffffffffffffffffffffffffffffffffffffff1673ffffffffffffffffffffffffffffffffffffffff1673ffffffffffffffffffffffffffffffffffffffff168152602001908152602001600020600301805490501061123757600660006111f66007600085815260200190815260200160002060009054906101000a900473ffffffffffffffffffffffffffffffffffffffff16611801565b73ffffffffffffffffffffffffffffffffffffffff1673ffffffffffffffffffffffffffffffffffffffff1681526020019081526020016000206001015490505b61123f612a5b565b6008600081548092919060010191905055506040518060800160405280600115158152602001600854815260200183815260200160006040519080825280602002602001820160405280156112a35781602001602082028038833980820191505090505b50815250905080600660003373ffffffffffffffffffffffffffffffffffffffff1673ffffffffffffffffffffffffffffffffffffffff16815260200190815260200160002060008201518160000160006101000a81548160ff02191690831515021790555060208201518160010155604082015181600201556060820151816003019080519060200190611339929190612a85565b509050503360076000600854815260200190815260200160002060006101000a81548173ffffffffffffffffffffffffffffffffffffffff021916908373ffffffffffffffffffffffffffffffffffffffff1602179055506005544201600660003373ffffffffffffffffffffffffffffffffffffffff1673ffffffffffffffffffffffffffffffffffffffff168152602001908152602001600020600401600060018152602001908152602001600020819055506000600660003373ffffffffffffffffffffffffffffffffffffffff1673ffffffffffffffffffffffffffffffffffffffff168152602001908152602001600020600401600060028152602001908152602001600020819055506000600660003373ffffffffffffffffffffffffffffffffffffffff1673ffffffffffffffffffffffffffffffffffffffff168152602001908152602001600020600401600060038152602001908152602001600020819055506000600660003373ffffffffffffffffffffffffffffffffffffffff1673ffffffffffffffffffffffffffffffffffffffff168152602001908152602001600020600401600060048152602001908152602001600020819055506000600660003373ffffffffffffffffffffffffffffffffffffffff1673ffffffffffffffffffffffffffffffffffffffff168152602001908152602001600020600401600060058152602001908152602001600020819055506000600660003373ffffffffffffffffffffffffffffffffffffffff1673ffffffffffffffffffffffffffffffffffffffff168152602001908152602001600020600401600060068152602001908152602001600020819055506000600660003373ffffffffffffffffffffffffffffffffffffffff1673ffffffffffffffffffffffffffffffffffffffff168152602001908152602001600020600401600060078152602001908152602001600020819055506000600660003373ffffffffffffffffffffffffffffffffffffffff1673ffffffffffffffffffffffffffffffffffffffff16815260200190815260200160002060040160006008815260200190815260200160002081905550600660006007600085815260200190815260200160002060009054906101000a900473ffffffffffffffffffffffffffffffffffffffff1673ffffffffffffffffffffffffffffffffffffffff1673ffffffffffffffffffffffffffffffffffffffff1681526020019081526020016000206003013390806001815401808255809150509060018203906000526020600020016000909192909190916101000a81548173ffffffffffffffffffffffffffffffffffffffff021916908373ffffffffffffffffffffffffffffffffffffffff1602179055505061174860013361231d565b6007600083815260200190815260200160002060009054906101000a900473ffffffffffffffffffffffffffffffffffffffff1673ffffffffffffffffffffffffffffffffffffffff163373ffffffffffffffffffffffffffffffffffffffff167f788c06d2405ae89dd3f0528d38be7691289474d72176408bc2c2406dc5e342f1426040518082815260200191505060405180910390a35050565b600060036000838152602001908152602001600020549050919050565b6000600454600660008473ffffffffffffffffffffffffffffffffffffffff1673ffffffffffffffffffffffffffffffffffffffff16815260200190815260200160002060030180549050101561185a57819050611e8e565b606061016b60405190808252806020026020018201604052801561188d5781602001602082028038833980820191505090505b509050600660008473ffffffffffffffffffffffffffffffffffffffff1673ffffffffffffffffffffffffffffffffffffffff1681526020019081526020016000206003016000815481106118de57fe5b9060005260206000200160009054906101000a900473ffffffffffffffffffffffffffffffffffffffff168160008151811061191657fe5b602002602001019073ffffffffffffffffffffffffffffffffffffffff16908173ffffffffffffffffffffffffffffffffffffffff1681525050600660008473ffffffffffffffffffffffffffffffffffffffff1673ffffffffffffffffffffffffffffffffffffffff16815260200190815260200160002060030160018154811061199e57fe5b9060005260206000200160009054906101000a900473ffffffffffffffffffffffffffffffffffffffff16816001815181106119d657fe5b602002602001019073ffffffffffffffffffffffffffffffffffffffff16908173ffffffffffffffffffffffffffffffffffffffff1681525050600660008473ffffffffffffffffffffffffffffffffffffffff1673ffffffffffffffffffffffffffffffffffffffff168152602001908152602001600020600301600281548110611a5e57fe5b9060005260206000200160009054906101000a900473ffffffffffffffffffffffffffffffffffffffff1681600281518110611a9657fe5b602002602001019073ffffffffffffffffffffffffffffffffffffffff16908173ffffffffffffffffffffffffffffffffffffffff16815250506000806001905060008090505b61016b811015611e125760045460066000868481518110611afa57fe5b602002602001015173ffffffffffffffffffffffffffffffffffffffff1673ffffffffffffffffffffffffffffffffffffffff168152602001908152602001600020600301805490501415611de6576078811015611de15760066000858381518110611b6257fe5b602002602001015173ffffffffffffffffffffffffffffffffffffffff1673ffffffffffffffffffffffffffffffffffffffff168152602001908152602001600020600301600081548110611bb357fe5b9060005260206000200160009054906101000a900473ffffffffffffffffffffffffffffffffffffffff16846003600184010281518110611bf057fe5b602002602001019073ffffffffffffffffffffffffffffffffffffffff16908173ffffffffffffffffffffffffffffffffffffffff168152505060066000858381518110611c3a57fe5b602002602001015173ffffffffffffffffffffffffffffffffffffffff1673ffffffffffffffffffffffffffffffffffffffff168152602001908152602001600020600301600181548110611c8b57fe5b9060005260206000200160009054906101000a900473ffffffffffffffffffffffffffffffffffffffff16846001600360018501020181518110611ccb57fe5b602002602001019073ffffffffffffffffffffffffffffffffffffffff16908173ffffffffffffffffffffffffffffffffffffffff168152505060066000858381518110611d1557fe5b602002602001015173ffffffffffffffffffffffffffffffffffffffff1673ffffffffffffffffffffffffffffffffffffffff168152602001908152602001600020600301600281548110611d6657fe5b9060005260206000200160009054906101000a900473ffffffffffffffffffffffffffffffffffffffff16846002600360018501020181518110611da657fe5b602002602001019073ffffffffffffffffffffffffffffffffffffffff16908173ffffffffffffffffffffffffffffffffffffffff16815250505b611e05565b60009150838181518110611df657fe5b60200260200101519250611e12565b8080600101915050611add565b508015611e87576040517f08c379a00000000000000000000000000000000000000000000000000000000081526004018080602001828103825260108152602001807f4e6f20467265652052656665727265720000000000000000000000000000000081525060200191505060405180910390fd5b8193505050505b919050565b600160009054906101000a900473ffffffffffffffffffffffffffffffffffffffff1681565b6060600660008373ffffffffffffffffffffffffffffffffffffffff1673ffffffffffffffffffffffffffffffffffffffff168152602001908152602001600020600301805480602002602001604051908101604052809291908181526020018280548015611f7d57602002820191906000526020600020905b8160009054906101000a900473ffffffffffffffffffffffffffffffffffffffff1673ffffffffffffffffffffffffffffffffffffffff1681526020019060010190808311611f33575b50505050509050919050565b60036020528060005260406000206000915090505481565b6000809054906101000a900473ffffffffffffffffffffffffffffffffffffffff1681565b600260009054906101000a900473ffffffffffffffffffffffffffffffffffffffff1681565b60076020528060005260406000206000915054906101000a900473ffffffffffffffffffffffffffffffffffffffff1681565b60085481565b60066020528060005260406000206000915090508060000160009054906101000a900460ff16908060010154908060020154905083565b6000809054906101000a900473ffffffffffffffffffffffffffffffffffffffff1673ffffffffffffffffffffffffffffffffffffffff163373ffffffffffffffffffffffffffffffffffffffff1614806121045750600160009054906101000a900473ffffffffffffffffffffffffffffffffffffffff1673ffffffffffffffffffffffffffffffffffffffff163373ffffffffffffffffffffffffffffffffffffffff16145b612176576040517f08c379a00000000000000000000000000000000000000000000000000000000081526004018080602001828103825260198152602001807f6f6e6c7920666f72206f776e6572206f72206d616e616765720000000000000081525060200191505060405180910390fd5b80600160006101000a81548173ffffffffffffffffffffffffffffffffffffffff021916908373ffffffffffffffffffffffffffffffffffffffff16021790555050565b6000600660008473ffffffffffffffffffffffffffffffffffffffff1673ffffffffffffffffffffffffffffffffffffffff168152602001908152602001600020600401600083815260200190815260200160002054905092915050565b6000809054906101000a900473ffffffffffffffffffffffffffffffffffffffff1673ffffffffffffffffffffffffffffffffffffffff163373ffffffffffffffffffffffffffffffffffffffff16146122da576040517f08c379a000000000000000000000000000000000000000000000000000000000815260040180806020018281038252600e8152602001807f6f6e6c7920666f72206f776e657200000000000000000000000000000000000081525060200191505060405180910390fd5b806000806101000a81548173ffffffffffffffffffffffffffffffffffffffff021916908373ffffffffffffffffffffffffffffffffffffffff16021790555050565b60008060008060018614806123325750600586145b156123b45760076000600660008873ffffffffffffffffffffffffffffffffffffffff1673ffffffffffffffffffffffffffffffffffffffff16815260200190815260200160002060020154815260200190815260200160002060009054906101000a900473ffffffffffffffffffffffffffffffffffffffff169350612836565b60028614806123c35750600686145b156124bd5760076000600660008873ffffffffffffffffffffffffffffffffffffffff1673ffffffffffffffffffffffffffffffffffffffff16815260200190815260200160002060020154815260200190815260200160002060009054906101000a900473ffffffffffffffffffffffffffffffffffffffff16925060076000600660008673ffffffffffffffffffffffffffffffffffffffff1673ffffffffffffffffffffffffffffffffffffffff16815260200190815260200160002060020154815260200190815260200160002060009054906101000a900473ffffffffffffffffffffffffffffffffffffffff169350612835565b60038614806124cc5750600786145b1561263e5760076000600660008873ffffffffffffffffffffffffffffffffffffffff1673ffffffffffffffffffffffffffffffffffffffff16815260200190815260200160002060020154815260200190815260200160002060009054906101000a900473ffffffffffffffffffffffffffffffffffffffff16925060076000600660008673ffffffffffffffffffffffffffffffffffffffff1673ffffffffffffffffffffffffffffffffffffffff16815260200190815260200160002060020154815260200190815260200160002060009054906101000a900473ffffffffffffffffffffffffffffffffffffffff16915060076000600660008573ffffffffffffffffffffffffffffffffffffffff1673ffffffffffffffffffffffffffffffffffffffff16815260200190815260200160002060020154815260200190815260200160002060009054906101000a900473ffffffffffffffffffffffffffffffffffffffff169350612834565b600486148061264d5750600886145b156128335760076000600660008873ffffffffffffffffffffffffffffffffffffffff1673ffffffffffffffffffffffffffffffffffffffff16815260200190815260200160002060020154815260200190815260200160002060009054906101000a900473ffffffffffffffffffffffffffffffffffffffff16925060076000600660008673ffffffffffffffffffffffffffffffffffffffff1673ffffffffffffffffffffffffffffffffffffffff16815260200190815260200160002060020154815260200190815260200160002060009054906101000a900473ffffffffffffffffffffffffffffffffffffffff16915060076000600660008573ffffffffffffffffffffffffffffffffffffffff1673ffffffffffffffffffffffffffffffffffffffff16815260200190815260200160002060020154815260200190815260200160002060009054906101000a900473ffffffffffffffffffffffffffffffffffffffff16905060076000600660008473ffffffffffffffffffffffffffffffffffffffff1673ffffffffffffffffffffffffffffffffffffffff16815260200190815260200160002060020154815260200190815260200160002060009054906101000a900473ffffffffffffffffffffffffffffffffffffffff1693505b5b5b5b600660008573ffffffffffffffffffffffffffffffffffffffff1673ffffffffffffffffffffffffffffffffffffffff16815260200190815260200160002060000160009054906101000a900460ff166128c257600760006001815260200190815260200160002060009054906101000a900473ffffffffffffffffffffffffffffffffffffffff1693505b42600660008673ffffffffffffffffffffffffffffffffffffffff1673ffffffffffffffffffffffffffffffffffffffff168152602001908152602001600020600401600088815260200190815260200160002054106129db5760008473ffffffffffffffffffffffffffffffffffffffff166108fc600360008a8152602001908152602001600020549081150290604051600060405180830381858888f1935050505090503373ffffffffffffffffffffffffffffffffffffffff168573ffffffffffffffffffffffffffffffffffffffff167fce7dc747411ac40191c5335943fcc79d8c2d8c01ca5ae83d9fed160409fa61208942604051808381526020018281526020019250505060405180910390a350612a53565b3373ffffffffffffffffffffffffffffffffffffffff168473ffffffffffffffffffffffffffffffffffffffff167f7df0f6bac5c770af7783500bb7f1c0d073adb11316004ba6f9f6c704af1a1aea8842604051808381526020018281526020019250505060405180910390a3612a52868561231d565b5b505050505050565b60405180608001604052806000151581526020016000815260200160008152602001606081525090565b828054828255906000526020600020908101928215612afe579160200282015b82811115612afd5782518260006101000a81548173ffffffffffffffffffffffffffffffffffffffff021916908373ffffffffffffffffffffffffffffffffffffffff16021790555091602001919060010190612aa5565b5b509050612b0b9190612b0f565b5090565b612b4f91905b80821115612b4b57600081816101000a81549073ffffffffffffffffffffffffffffffffffffffff021916905550600101612b15565b5090565b9056fe506c6561736520627579206669727374206c6576656c20666f7220302e303520455448a265627a7a72315820908eb91062724a375bcd061eb01c230842d1ce2ab8e029de9ac815ffb1b9e75964736f6c634300050c0032",
  "source": "/**\r\n *Submitted for verification at Etherscan.io on 2020-05-03\r\n*/\r\n\r\npragma solidity ^0.5.7;\r\n\r\n// Developer Telegram: @MyEtherStoreTeam\r\n\r\nlibrary SafeMath {\r\n\r\n  function mul(uint256 a, uint256 b) internal pure returns (uint256) {\r\n    uint256 c = a * b;\r\n    assert(a == 0 || c / a == b);\r\n    return c;\r\n  }\r\n\r\n  function div(uint256 a, uint256 b) internal pure returns (uint256) {\r\n    uint256 c = a / b;\r\n    return c;\r\n  }\r\n\r\n  function sub(uint256 a, uint256 b) internal pure returns (uint256) {\r\n    assert(b <= a);\r\n    return a - b;\r\n  }\r\n\r\n  function add(uint256 a, uint256 b) internal pure returns (uint256) {\r\n    uint256 c = a + b;\r\n    assert(c >= a);\r\n    return c;\r\n  }\r\n\r\n}\r\n\r\n\r\ncontract Ownable {\r\n\r\n  address public owner;\r\n  address public manager;\r\n  address public ownerWallet;\r\n\r\n  constructor() public {\r\n    owner = msg.sender;\r\n    manager = msg.sender;\r\n    ownerWallet = 0xC40Cf8FffF09cF72753D9E56bbd60342888a2f46;\r\n  }\r\n\r\n  modifier onlyOwner() {\r\n    require(msg.sender == owner, \"only for owner\");\r\n    _;\r\n  }\r\n\r\n  modifier onlyOwnerOrManager() {\r\n     require((msg.sender == owner)||(msg.sender == manager), \"only for owner or manager\");\r\n      _;\r\n  }\r\n\r\n  function transferOwnership(address newOwner) public onlyOwner {\r\n    owner = newOwner;\r\n  }\r\n\r\n  function setManager(address _manager) public onlyOwnerOrManager {\r\n      manager = _manager;\r\n  }\r\n}\r\n\r\ncontract MyEtherClub is Ownable {\r\n\r\n    event regLevelEvent(address indexed _user, address indexed _referrer, uint _time);\r\n    event buyLevelEvent(address indexed _user, uint _level, uint _time);\r\n    event prolongateLevelEvent(address indexed _user, uint _level, uint _time);\r\n    event getMoneyForLevelEvent(address indexed _user, address indexed _referral, uint _level, uint _time);\r\n    event lostMoneyForLevelEvent(address indexed _user, address indexed _referral, uint _level, uint _time);\r\n    //------------------------------\r\n\r\n    mapping (uint => uint) public LEVEL_PRICE;\r\n    uint REFERRER_1_LEVEL_LIMIT = 3;\r\n    uint PERIOD_LENGTH = 365 days;\r\n\r\n\r\n    struct UserStruct {\r\n        bool isExist;\r\n        uint id;\r\n        uint referrerID;\r\n        address[] referral;\r\n        mapping (uint => uint) levelExpired;\r\n    }\r\n\r\n    mapping (address => UserStruct) public users;\r\n    mapping (uint => address) public userList;\r\n    uint public currUserID = 0;\r\n\r\n\r\n\r\n\r\n    constructor() public {\r\n\r\n        LEVEL_PRICE[1] = 0.05 ether;\r\n        LEVEL_PRICE[2] = 0.15 ether;\r\n        LEVEL_PRICE[3] = 0.45 ether;\r\n        LEVEL_PRICE[4] = 1.35 ether;\r\n        LEVEL_PRICE[5] = 4.05 ether;\r\n        LEVEL_PRICE[6] = 12.15 ether;\r\n        LEVEL_PRICE[7] = 36.45 ether;\r\n        LEVEL_PRICE[8] = 109.35 ether;\r\n\r\n        UserStruct memory userStruct;\r\n        currUserID++;\r\n\r\n        userStruct = UserStruct({\r\n            isExist : true,\r\n            id : currUserID,\r\n            referrerID : 0,\r\n            referral : new address[](0)\r\n        });\r\n        users[ownerWallet] = userStruct;\r\n        userList[currUserID] = ownerWallet;\r\n\r\n        users[ownerWallet].levelExpired[1] = 77777777777;\r\n        users[ownerWallet].levelExpired[2] = 77777777777;\r\n        users[ownerWallet].levelExpired[3] = 77777777777;\r\n        users[ownerWallet].levelExpired[4] = 77777777777;\r\n        users[ownerWallet].levelExpired[5] = 77777777777;\r\n        users[ownerWallet].levelExpired[6] = 77777777777;\r\n        users[ownerWallet].levelExpired[7] = 77777777777;\r\n        users[ownerWallet].levelExpired[8] = 77777777777;\r\n    }\r\n    function () external payable {\r\n\r\n        uint level;\r\n\r\n        if(msg.value == LEVEL_PRICE[1]){\r\n            level = 1;\r\n        }else if(msg.value == LEVEL_PRICE[2]){\r\n            level = 2;\r\n        }else if(msg.value == LEVEL_PRICE[3]){\r\n            level = 3;\r\n        }else if(msg.value == LEVEL_PRICE[4]){\r\n            level = 4;\r\n        }else if(msg.value == LEVEL_PRICE[5]){\r\n            level = 5;\r\n        }else if(msg.value == LEVEL_PRICE[6]){\r\n            level = 6;\r\n        }else if(msg.value == LEVEL_PRICE[7]){\r\n            level = 7;\r\n        }else if(msg.value == LEVEL_PRICE[8]){\r\n            level = 8;\r\n        }else {\r\n            revert('Incorrect Value send');\r\n        }\r\n\r\n        if(users[msg.sender].isExist){\r\n            buyLevel(level);\r\n        } else if(level == 1) {\r\n            uint refId = 0;\r\n            address referrer = bytesToAddress(msg.data);\r\n\r\n            if (users[referrer].isExist){\r\n                refId = users[referrer].id;\r\n            } else {\r\n                revert('Incorrect referrer');\r\n            }\r\n\r\n            regUser(refId);\r\n        } else {\r\n            revert(\"Please buy first level for 0.05 ETH\");\r\n        }\r\n    }\r\n    function getMap(uint256 _i)public view returns(uint256){\r\nreturn LEVEL_PRICE[_i];\r\n    }\r\n\r\n    function regUser(uint _referrerID) public payable {\r\n        require(!users[msg.sender].isExist, 'User exist');\r\n\r\n        require(_referrerID > 0 && _referrerID <= currUserID, 'Incorrect referrer Id');\r\n\r\n        require(msg.value==LEVEL_PRICE[1], 'Incorrect Value');\r\n\r\n\r\n        if(users[userList[_referrerID]].referral.length >= REFERRER_1_LEVEL_LIMIT)\r\n        {\r\n            _referrerID = users[findFreeReferrer(userList[_referrerID])].id;\r\n        }\r\n\r\n\r\n        UserStruct memory userStruct;\r\n        currUserID++;\r\n\r\n        userStruct = UserStruct({\r\n            isExist : true,\r\n            id : currUserID,\r\n            referrerID : _referrerID,\r\n            referral : new address[](0)\r\n        });\r\n\r\n        users[msg.sender] = userStruct;\r\n        userList[currUserID] = msg.sender;\r\n\r\n        users[msg.sender].levelExpired[1] = now + PERIOD_LENGTH;\r\n        users[msg.sender].levelExpired[2] = 0;\r\n        users[msg.sender].levelExpired[3] = 0;\r\n        users[msg.sender].levelExpired[4] = 0;\r\n        users[msg.sender].levelExpired[5] = 0;\r\n        users[msg.sender].levelExpired[6] = 0;\r\n        users[msg.sender].levelExpired[7] = 0;\r\n        users[msg.sender].levelExpired[8] = 0;\r\n\r\n        users[userList[_referrerID]].referral.push(msg.sender);\r\n\r\n        payForLevel(1, msg.sender);\r\n\r\n        emit regLevelEvent(msg.sender, userList[_referrerID], now);\r\n    }\r\n\r\n    function buyLevel(uint _level) public payable {\r\n        require(users[msg.sender].isExist, 'User not exist');\r\n\r\n        require( _level>0 && _level<=8, 'Incorrect level');\r\n\r\n        if(_level == 1){\r\n            require(msg.value==LEVEL_PRICE[1], 'Incorrect Value');\r\n            users[msg.sender].levelExpired[1] += PERIOD_LENGTH;\r\n        } else {\r\n            require(msg.value==LEVEL_PRICE[_level], 'Incorrect Value');\r\n\r\n            for(uint l =_level-1; l>0; l-- ){\r\n                require(users[msg.sender].levelExpired[l] >= now, 'Buy the previous level');\r\n            }\r\n\r\n            if(users[msg.sender].levelExpired[_level] == 0){\r\n                users[msg.sender].levelExpired[_level] = now + PERIOD_LENGTH;\r\n            } else {\r\n                users[msg.sender].levelExpired[_level] += PERIOD_LENGTH;\r\n            }\r\n        }\r\n        payForLevel(_level, msg.sender);\r\n        emit buyLevelEvent(msg.sender, _level, now);\r\n    }\r\n\r\n    function payForLevel(uint _level, address _user) internal {\r\n\r\n        address referer;\r\n        address referer1;\r\n        address referer2;\r\n        address referer3;\r\n        if(_level == 1 || _level == 5){\r\n            referer = userList[users[_user].referrerID];\r\n        } else if(_level == 2 || _level == 6){\r\n            referer1 = userList[users[_user].referrerID];\r\n            referer = userList[users[referer1].referrerID];\r\n        } else if(_level == 3 || _level == 7){\r\n            referer1 = userList[users[_user].referrerID];\r\n            referer2 = userList[users[referer1].referrerID];\r\n            referer = userList[users[referer2].referrerID];\r\n        } else if(_level == 4 || _level == 8){\r\n            referer1 = userList[users[_user].referrerID];\r\n            referer2 = userList[users[referer1].referrerID];\r\n            referer3 = userList[users[referer2].referrerID];\r\n            referer = userList[users[referer3].referrerID];\r\n        }\r\n\r\n        if(!users[referer].isExist){\r\n            referer = userList[1];\r\n        }\r\n\r\n        if(users[referer].levelExpired[_level] >= now ){\r\n            bool result;\r\n            result = address(uint160(referer)).send(LEVEL_PRICE[_level]);\r\n            emit getMoneyForLevelEvent(referer, msg.sender, _level, now);\r\n        } else {\r\n            emit lostMoneyForLevelEvent(referer, msg.sender, _level, now);\r\n            payForLevel(_level,referer);\r\n        }\r\n    }\r\n\r\n    function findFreeReferrer(address _user) public view returns(address) {\r\n        if(users[_user].referral.length < REFERRER_1_LEVEL_LIMIT){\r\n            return _user;\r\n        }\r\n\r\n        address[] memory referrals = new address[](363);\r\n        referrals[0] = users[_user].referral[0]; \r\n        referrals[1] = users[_user].referral[1];\r\n        referrals[2] = users[_user].referral[2];\r\n\r\n        address freeReferrer;\r\n        bool noFreeReferrer = true;\r\n\r\n        for(uint i =0; i<363;i++){\r\n            if(users[referrals[i]].referral.length == REFERRER_1_LEVEL_LIMIT){\r\n                if(i<120){\r\n                    referrals[(i+1)*3] = users[referrals[i]].referral[0];\r\n                    referrals[(i+1)*3+1] = users[referrals[i]].referral[1];\r\n                    referrals[(i+1)*3+2] = users[referrals[i]].referral[2];\r\n                }\r\n            }else{\r\n                noFreeReferrer = false;\r\n                freeReferrer = referrals[i];\r\n                break;\r\n            }\r\n        }\r\n        require(!noFreeReferrer, 'No Free Referrer');\r\n        return freeReferrer;\r\n\r\n    }\r\n\r\n    function viewUserReferral(address _user) public view returns(address[] memory) {\r\n        return users[_user].referral;\r\n    }\r\n\r\n    function viewUserLevelExpired(address _user, uint _level) public view returns(uint) {\r\n        return users[_user].levelExpired[_level];\r\n    }\r\n    function bytesToAddress(bytes memory bys) private pure returns (address  addr ) {\r\n        assembly {\r\n            addr := mload(add(bys, 20))\r\n        }\r\n    }\r\n}",
  "sourcePath": "C:/Users/dell/Documents/practice/car/car/contracts/Currency.sol",
  "compiler": {
    "name": "solc",
    "version": "0.5.12+commit.7709ece9.Emscripten.clang"
  },
  "schemaVersion": "3.0.19",
  "updatedAt": "2020-05-12T23:10:32.204Z",
  "networkType": "ethereum",
  "devdoc": {
    "methods": {}
  },
  "userdoc": {
    "methods": {}
  }
}